{
  "contractName": "Meter",
  "abi": [
    {
      "constant": true,
      "inputs": [
        {
          "name": "",
          "type": "uint256"
        }
      ],
      "name": "readingList",
      "outputs": [
        {
          "name": "muid",
          "type": "uint256"
        },
        {
          "name": "mkeyhash",
          "type": "string"
        },
        {
          "name": "reading",
          "type": "string"
        },
        {
          "name": "timestamp",
          "type": "string"
        },
        {
          "name": "activated",
          "type": "bool"
        }
      ],
      "payable": false,
      "stateMutability": "view",
      "type": "function",
      "signature": "0x7b177e04"
    },
    {
      "constant": true,
      "inputs": [
        {
          "name": "",
          "type": "address"
        }
      ],
      "name": "validList",
      "outputs": [
        {
          "name": "",
          "type": "bool"
        }
      ],
      "payable": false,
      "stateMutability": "view",
      "type": "function",
      "signature": "0xc0594cdf"
    },
    {
      "constant": true,
      "inputs": [],
      "name": "meterCount",
      "outputs": [
        {
          "name": "",
          "type": "uint256"
        }
      ],
      "payable": false,
      "stateMutability": "view",
      "type": "function",
      "signature": "0xc1dc4dbf"
    },
    {
      "inputs": [],
      "payable": false,
      "stateMutability": "nonpayable",
      "type": "constructor",
      "signature": "constructor"
    }
  ],
  "bytecode": "0x608060405234801561001057600080fd5b506100ce606f6040805190810160405280600581526020017f68617368310000000000000000000000000000000000000000000000000000008152506040805190810160405280600281526020017f33300000000000000000000000000000000000000000000000000000000000008152506040805190810160405280600881526020017f31323a30303a303100000000000000000000000000000000000000000000000081525060016100d3640100000000026401000000009004565b610252565b600080815480929190600101919050555060a06040519081016040528086815260200185815260200184815260200183815260200182151581525060016000805481526020019081526020016000206000820151816000015560208201518160010190805190602001906101489291906101ad565b5060408201518160020190805190602001906101659291906101ad565b5060608201518160030190805190602001906101829291906101ad565b5060808201518160040160006101000a81548160ff0219169083151502179055509050505050505050565b828054600181600116156101000203166002900490600052602060002090601f016020900481019282601f106101ee57805160ff191683800117855561021c565b8280016001018555821561021c579182015b8281111561021b578251825591602001919060010190610200565b5b509050610229919061022d565b5090565b61024f91905b8082111561024b576000816000905550600101610233565b5090565b90565b6104eb806102616000396000f3fe608060405260043610610057576000357c0100000000000000000000000000000000000000000000000000000000900463ffffffff1680637b177e041461005c578063c0594cdf146101fa578063c1dc4dbf14610263575b600080fd5b34801561006857600080fd5b506100956004803603602081101561007f57600080fd5b810190808035906020019092919050505061028e565b6040518086815260200180602001806020018060200185151515158152602001848103845288818151815260200191508051906020019080838360005b838110156100ed5780820151818401526020810190506100d2565b50505050905090810190601f16801561011a5780820380516001836020036101000a031916815260200191505b50848103835287818151815260200191508051906020019080838360005b83811015610153578082015181840152602081019050610138565b50505050905090810190601f1680156101805780820380516001836020036101000a031916815260200191505b50848103825286818151815260200191508051906020019080838360005b838110156101b957808201518184015260208101905061019e565b50505050905090810190601f1680156101e65780820380516001836020036101000a031916815260200191505b509850505050505050505060405180910390f35b34801561020657600080fd5b506102496004803603602081101561021d57600080fd5b81019080803573ffffffffffffffffffffffffffffffffffffffff169060200190929190505050610499565b604051808215151515815260200191505060405180910390f35b34801561026f57600080fd5b506102786104b9565b6040518082815260200191505060405180910390f35b6001602052806000526040600020600091509050806000015490806001018054600181600116156101000203166002900480601f0160208091040260200160405190810160405280929190818152602001828054600181600116156101000203166002900480156103405780601f1061031557610100808354040283529160200191610340565b820191906000526020600020905b81548152906001019060200180831161032357829003601f168201915b505050505090806002018054600181600116156101000203166002900480601f0160208091040260200160405190810160405280929190818152602001828054600181600116156101000203166002900480156103de5780601f106103b3576101008083540402835291602001916103de565b820191906000526020600020905b8154815290600101906020018083116103c157829003601f168201915b505050505090806003018054600181600116156101000203166002900480601f01602080910402602001604051908101604052809291908181526020018280546001816001161561010002031660029004801561047c5780601f106104515761010080835404028352916020019161047c565b820191906000526020600020905b81548152906001019060200180831161045f57829003601f168201915b5050505050908060040160009054906101000a900460ff16905085565b60026020528060005260406000206000915054906101000a900460ff1681565b6000548156fea165627a7a7230582035e318282fbda3416af76ce42c897172385bd615640298e38c5f03a1029368ac0029",
  "source": "pragma solidity ^0.5.0;\r\n\r\ncontract Meter {\r\n  /*  Basic struct of reading*/\r\n  struct Reading {\r\n    uint muid;\r\n    string mkeyhash;\r\n    string reading;\r\n    string timestamp;\r\n    bool activated;\r\n  }\r\n\r\n  /*  Store Meter Count */\r\n  uint public meterCount;\r\n\r\n  /* Store the Meter Count */\r\n  mapping (uint => Reading) public readingList;\r\n\r\n  /* Store account has voted */\r\n  mapping (address => bool) public validList;\r\n\r\n  /* function validMeter(uint _muid, string memory _mhash) public {\r\n\r\n    require(hashCompare(_mhash,readingList[_muid].mkeyhash) == true);\r\n    validList[msg.sender] = true;\r\n  }\r\n\r\n  function hashCompare(Reading storage a, string memory b) internal returns (bool) {\r\n    return keccak256(abi.encodePacked(_first.age, _first.name)) == keccak256(b);\r\n} */\r\nfunction getHash(uint _muid) private view returns (string memory){\r\n  return readingList[_muid].mkeyhash;\r\n}\r\n\r\nfunction createAuthorizedMeter(uint _muid, string memory _hash, string memory _reading, string memory _timestamp, bool status) private {\r\n  meterCount++;\r\n  readingList[meterCount] = Reading(_muid,_hash,_reading,_timestamp,status);\r\n}\r\n\r\nconstructor() public {\r\n  createAuthorizedMeter(111, \"hash1\",\"30\", \"12:00:01\",true);\r\n}\r\n}\r\n",
  "sourcePath": "C:/Users/mon7792/block-hack/AetherChain/contracts/Meter.sol",
  "compiler": {
    "name": "solc",
    "version": "0.5.0+commit.1d4f565a.Emscripten.clang"
  },
  "schemaVersion": "3.0.1",
  "updatedAt": "2019-05-26T05:22:08.880Z",
  "devdoc": {
    "methods": {}
  },
  "userdoc": {
    "methods": {}
  }
}