{
  "contractName": "Meter",
  "abi": [
    {
      "constant": true,
      "inputs": [
        {
          "name": "",
          "type": "uint256"
        }
      ],
      "name": "readingList",
      "outputs": [
        {
          "name": "muid",
          "type": "uint256"
        },
        {
          "name": "mkeyhash",
          "type": "string"
        },
        {
          "name": "reading",
          "type": "uint256"
        },
        {
          "name": "timestamp",
          "type": "string"
        },
        {
          "name": "activated",
          "type": "bool"
        }
      ],
      "payable": false,
      "stateMutability": "view",
      "type": "function",
      "signature": "0x7b177e04"
    },
    {
      "constant": true,
      "inputs": [],
      "name": "meterCount",
      "outputs": [
        {
          "name": "",
          "type": "uint256"
        }
      ],
      "payable": false,
      "stateMutability": "view",
      "type": "function",
      "signature": "0xc1dc4dbf"
    },
    {
      "inputs": [],
      "payable": false,
      "stateMutability": "nonpayable",
      "type": "constructor",
      "signature": "constructor"
    },
    {
      "constant": false,
      "inputs": [
        {
          "name": "_id",
          "type": "uint256"
        },
        {
          "name": "_muid",
          "type": "uint256"
        },
        {
          "name": "_reading",
          "type": "uint256"
        },
        {
          "name": "_hash",
          "type": "string"
        }
      ],
      "name": "writeMeter",
      "outputs": [],
      "payable": false,
      "stateMutability": "nonpayable",
      "type": "function",
      "signature": "0xb71b286d"
    }
  ],
  "bytecode": "0x608060405234801561001057600080fd5b5061009a606f6040805190810160405280600581526020017f6861736831000000000000000000000000000000000000000000000000000000815250601e6040805190810160405280600881526020017f31323a30303a3031000000000000000000000000000000000000000000000000815250600161023c640100000000026401000000009004565b61012360de6040805190810160405280600581526020017f6861736832000000000000000000000000000000000000000000000000000000815250601e6040805190810160405280600881526020017f31323a30303a3031000000000000000000000000000000000000000000000000815250600161023c640100000000026401000000009004565b6101ad61014d6040805190810160405280600581526020017f6861736833000000000000000000000000000000000000000000000000000000815250601e6040805190810160405280600881526020017f31323a30303a3031000000000000000000000000000000000000000000000000815250600161023c640100000000026401000000009004565b6102376101bc6040805190810160405280600581526020017f6861736834000000000000000000000000000000000000000000000000000000815250601e6040805190810160405280600881526020017f31323a30303a3031000000000000000000000000000000000000000000000000815250600161023c640100000000026401000000009004565b6103a8565b600080815480929190600101919050555060a06040519081016040528086815260200185815260200184815260200183815260200182151581525060016000805481526020019081526020016000206000820151816000015560208201518160010190805190602001906102b1929190610303565b506040820151816002015560608201518160030190805190602001906102d8929190610303565b5060808201518160040160006101000a81548160ff0219169083151502179055509050505050505050565b828054600181600116156101000203166002900490600052602060002090601f016020900481019282601f1061034457805160ff1916838001178555610372565b82800160010185558215610372579182015b82811115610371578251825591602001919060010190610356565b5b50905061037f9190610383565b5090565b6103a591905b808211156103a1576000816000905550600101610389565b5090565b90565b61063d806103b76000396000f3fe608060405260043610610057576000357c0100000000000000000000000000000000000000000000000000000000900463ffffffff1680637b177e041461005c578063b71b286d14610195578063c1dc4dbf1461027b575b600080fd5b34801561006857600080fd5b506100956004803603602081101561007f57600080fd5b81019080803590602001909291905050506102a6565b60405180868152602001806020018581526020018060200184151515158152602001838103835287818151815260200191508051906020019080838360005b838110156100ef5780820151818401526020810190506100d4565b50505050905090810190601f16801561011c5780820380516001836020036101000a031916815260200191505b50838103825285818151815260200191508051906020019080838360005b8381101561015557808201518184015260208101905061013a565b50505050905090810190601f1680156101825780820380516001836020036101000a031916815260200191505b5097505050505050505060405180910390f35b3480156101a157600080fd5b50610279600480360360808110156101b857600080fd5b81019080803590602001909291908035906020019092919080359060200190929190803590602001906401000000008111156101f357600080fd5b82018360208201111561020557600080fd5b8035906020019184600183028401116401000000008311171561022757600080fd5b91908080601f016020809104026020016040519081016040528093929190818152602001838380828437600081840152601f19601f820116905080830192505050505050509192919290505050610419565b005b34801561028757600080fd5b50610290610458565b6040518082815260200191505060405180910390f35b6001602052806000526040600020600091509050806000015490806001018054600181600116156101000203166002900480601f0160208091040260200160405190810160405280929190818152602001828054600181600116156101000203166002900480156103585780601f1061032d57610100808354040283529160200191610358565b820191906000526020600020905b81548152906001019060200180831161033b57829003601f168201915b505050505090806002015490806003018054600181600116156101000203166002900480601f0160208091040260200160405190810160405280929190818152602001828054600181600116156101000203166002900480156103fc5780601f106103d1576101008083540402835291602001916103fc565b820191906000526020600020905b8154815290600101906020018083116103df57829003601f168201915b5050505050908060040160009054906101000a900460ff16905085565b610423848261045e565b151561042e57600080fd5b81600160008681526020019081526020016000206002016000828254019250508190555050505050565b60005481565b600061046983610559565b6040516020018082805190602001908083835b6020831015156104a1578051825260208201915060208101905060208303925061047c565b6001836020036101000a03801982511681845116808217855250505050505090500191505060405160208183030381529060405280519060200120826040516020018082805190602001908083835b60208310151561051557805182526020820191506020810190506020830392506104f0565b6001836020036101000a0380198251168184511680821785525050505050509050019150506040516020818303038152906040528051906020012014905092915050565b6060600160008381526020019081526020016000206001018054600181600116156101000203166002900480601f0160208091040260200160405190810160405280929190818152602001828054600181600116156101000203166002900480156106055780601f106105da57610100808354040283529160200191610605565b820191906000526020600020905b8154815290600101906020018083116105e857829003601f168201915b5050505050905091905056fea165627a7a7230582070d2203ac271285dbb235840df6bb80b6f399ef64dfc2dc13a066d1d1f76fb430029",
  "source": "pragma solidity ^0.5.0;\r\n\r\ncontract Meter {\r\n  /*  Basic struct of reading*/\r\n  struct Reading {\r\n    uint muid;\r\n    string mkeyhash;\r\n    uint reading;\r\n    string timestamp;\r\n    bool activated;\r\n  }\r\n\r\n  /*  Store Meter Count */\r\n  uint public meterCount;\r\n\r\n  /* Store the Meter Count */\r\n  mapping (uint => Reading) public readingList;\r\n\r\n/* Returns the hash value based on the the muid  */\r\nfunction getHash(uint _id) private view returns (string memory){\r\n  return readingList[_id].mkeyhash;\r\n}\r\nfunction hashcheck(uint _id, string memory _hash) private returns (bool) {\r\n  return  (keccak256(abi.encodePacked((_hash))) == keccak256(abi.encodePacked((getHash(_id)))) );\r\n}\r\n\r\nfunction writeMeter(uint _id, uint _muid, uint _reading,string memory _hash)public{\r\n  require(hashcheck(_id, _hash));\r\n  readingList[_id].reading += _reading;\r\n}\r\n\r\nfunction createAuthorizedMeter(uint _muid, string memory _hash, uint _reading, string memory _timestamp, bool status) private {\r\n  meterCount++;\r\n  readingList[meterCount] = Reading(_muid,_hash,_reading,_timestamp,status);\r\n}\r\n\r\nconstructor() public {\r\n  createAuthorizedMeter(111, \"hash1\",30, \"12:00:01\",true);\r\n  createAuthorizedMeter(222, \"hash2\",30, \"12:00:01\",true);\r\n  createAuthorizedMeter(333, \"hash3\",30, \"12:00:01\",true);\r\n  createAuthorizedMeter(444, \"hash4\",30, \"12:00:01\",true);\r\n}\r\n}\r\n",
  "sourcePath": "C:/Users/mon7792/block-hack/AetherChain/contracts/Meter.sol",
  "compiler": {
    "name": "solc",
    "version": "0.5.0+commit.1d4f565a.Emscripten.clang"
  },
  "schemaVersion": "3.0.1",
  "updatedAt": "2019-05-26T10:08:43.016Z",
  "devdoc": {
    "methods": {}
  },
  "userdoc": {
    "methods": {}
  }
}